:020000040800F2
:100000000826002049020008990F0008910F0008F7
:10001000950F00080D0700089B1B0008000000005A
:10002000000000000000000000000000890100083E
:10003000E509000800000000E5010008511700086C
:1000400063020008630200086302000863020008FC
:1000500063020008630200086302000863020008EC
:1000600063020008630200086302000863020008DC
:1000700063020008630200086302000863020008CC
:1000800063020008630200086302000863020008BC
:1000900063020008630200086302000863020008AC
:1000A000630200086302000863020008630200089C
:1000B000630200086302000863020008630200088C
:1000C000630200086302000863020008630200087C
:1000D0006302000863020008D918000831190008FB
:1000E000630200086302000863020008630200085C
:1000F00063020008630200086302000800000000B9
:100100000000000063020008630200080000000015
:100110006302000863020008000000000000000005
:10012000630200086302000863020008630200081B
:1001300000000000000000000000000000000000BF
:1001400000000000000000000000000000000000AF
:1001500063020008630200086302000863020008EB
:1001600063020008630200086302000863020008DB
:10017000DFF810D000F000F900480047B91C000873
:10018000AFF30080082600202C4B19680868B0E8FF
:10019000F04F80F30988BFF36F8F4FF0000080F3BA
:1001A000118870470000000008480068006880F36C
:1001B00008884FF0000080F3148862B661B6BFF380
:1001C0004F8FBFF36F8F00DF00BF00BF08ED00E06F
:1001D000DFF80C00016841F470010160704700BF56
:1001E00088ED00E0EFF30980BFF36F8F134B1A68BF
:1001F0001EF0100F08BF20ED108A20E9F04F1060AC
:1002000009B44FF0100080F31188BFF34F8FBFF394
:100210006F8F02F029FA4FF0000080F3118809BCBB
:1002200019680868B0E8F04F1EF0100F08BFB0EC76
:10023000108A80F30988BFF36F8F7047BC000020DD
:10024000EFF30580704700000648804706480047E6
:10025000FEE7FEE7FEE7FEE7FEE7FEE7FEE7FEE776
:10026000FEE7FEE785170008710100082DE9F05F41
:100270000546002092469B46884606468146402415
:100280001BE0284641464746224600F065F85346A3
:100290005A46C01A914110D311461846224600F022
:1002A0004CF82D1A67EB01084F4622460120002129
:1002B00000F043F817EB00094E41201EA4F10104A1
:1002C000DFDC484631462A464346BDE8F09F40EA17
:1002D00001039B0703D009E008C9121F08C0042AC4
:1002E000FAD203E011F8013B00F8013B521EF9D2AB
:1002F0007047D2B201E000F8012B491EFBD27047D3
:100300000022F6E710B513460A4604461946FFF7E1
:10031000F0FF204610BD30B505462A460B4612F8C0
:10032000010B13F8014B08B1A042F8D01CB1002812
:1003300002D06D1CF1E7284630BD202A04DB203AAC
:1003400000FA02F1002070479140C2F1200320FA28
:1003500003F3194390407047202A04DB203A21FA26
:1003600002F00021704721FA02F3D040C2F12002CE
:100370009140084319467047064C074D06E0E06877
:1003800040F0010394E8070098471034AC42F6D3DC
:10039000FFF7F2FE182B0008382B000800B591B0CB
:1003A000374800F079FA01A800F04AFA3548019080
:1003B0003548029000200390022004900020059010
:1003C000802006904000079080000890202009902F
:1003D00000020A9000200B9001A9294800F03DFA84
:1003E0000121274800F020FA0CA800F012F90020A3
:1003F0000C9001208DF834008DF835004FF460200A
:100400000E9000200F9002208DF840000CA91D488E
:100410004C3800F065F8072301220B2119484C38AD
:1004200000F086F8072302220C2116484C3800F011
:100430007FF8012113484C3800F033F801211148AE
:100440004C3800F023F80F484C3800F0CDF800BFCE
:100450000C484C3800F03AF80028F9D109484C38DB
:1004600000F0D2F800BF07484C3800F025F800280B
:10047000F9D1012103484C3800F0BBF811B000BDA0
:10048000080002404C2401409400002021B1826801
:1004900042F00102826003E0826822F00102826081
:1004A000704721B1826842F48072826003E0826802
:1004B00022F4807282607047014600208A6802F050
:1004C00004020AB1012000E000207047014600202C
:1004D0008A6802F008020AB1012000E0002070479B
:1004E00030B502460020002350680F4C20400D79A3
:1004F0000C6844EA05242043506090680B4C20406F
:10050000D1E902542C434D7944EA450420439060DC
:10051000D06A20F470000C7C641EE4B2234340EAED
:100520000350D06230BD0000FFFEF0FFFDF7F1FD8B
:10053000F0B504460D4600200021092D11DDE068CC
:10054000A5F10A0606EB4607072606FA07F18843D7
:10055000A5F10A0606EB460603FA06F10843E06039
:100560000CE0206905EB4507072606FA07F18843EA
:1005700005EB450603FA06F108432061072A0FDA66
:10058000606B561E06EB86071F2606FA07F18843A6
:10059000561E06EB860605FA06F10843606322E064
:1005A0000D2A0FDA206BD61F06EB86071F2606FAE8
:1005B00007F18843D61F06EB860605FA06F10843C5
:1005C000206310E0E06AA2F10D0606EB86071F2605
:1005D00006FA07F18843A2F10D0606EB860605FA36
:1005E00006F10843E062F0BD816841F008018160D6
:1005F000704721B1826842F4A002826003E0826801
:1006000022F4A00282607047816841F00401816099
:10061000704700210160017141718160C160012159
:100620000174704738B504460B4951F82400012184
:1006300000F03CFD684600F0A3FC084830F81400C8
:10064000ADF8000028208DF80300054951F824007A
:10065000694600F063FA38BD3800002034000020FD
:100660002C00002010B500F0BFF9012000F016F8B2
:10067000022000F013F8032000F010F8012000F031
:1006800031F8022000F02EF8032000F02BF80020B3
:10069000FFF7C8FF0120FFF7C5FF10BD38B50446BE
:1006A0000D4951F82400012100F000FD684600F0DA
:1006B00067FC0A4830F81400ADF8000010208DF8EF
:1006C000030002208DF80200054951F82400694614
:1006D00000F024FA38BD00001C00002014000020A7
:1006E00004000020032800DD7047064931F810108F
:1006F00031B1044931F81010034A52F82020116139
:1007000000BFF1E7140000200400002000BFFEE756
:1007100010B502460020002300BF05E00C78044419
:10072000E0B25C1CE3B2491C9342F7DBC0B210BDDF
:100730002DED048B88B04FF4805007900020069078
:10074000002430A207CA03AB07C39FED310AF0EEC5
:10075000408A9FED300AB0EE409A52E04FF480504C
:1007600007900020069000250FE02B484488BDF834
:100770001800844200DB0694BDF81C00844200DCB3
:100780000794102001F0F6FE6D1C782DEDDBBDF80E
:10079000180000EE100AB8EE400AB0EE498A08EEE2
:1007A000808ABCEEC80A10EE100A1C4908801C485A
:1007B000006818B3079801900698029008460088D0
:1007C00000909DF805008DF80D009DF804008DF84F
:1007D0000E009DF809008DF810009DF808008DF8B6
:1007E00011009DF801008DF813009DF800008DF8B0
:1007F0001400092203A90B4800F046FF322001F043
:10080000B9FEABE7DD0000EE0000FF0000000000D5
:10081000809C703D225113C294000020880000206B
:100820008C0000200038014021B1026842F0010232
:10083000026004E002684FF6FE731A4002607047DF
:100840000021016041608160C1600161416181619D
:10085000C161016241628162704710B50022026885
:1008600047F6F0739A430C6A8B6823430C69234361
:100870004C6923438C692343CC6923434C6A23434B
:100880008C6A23431A430260CB6843600B68836021
:100890004B68C36010BD000001684FF6FE72114046
:1008A00001600021016041608160C1604B49884264
:1008B00008D14A490839496841F00F01474A083AC6
:1008C00051608AE045491431884208D143490839CA
:1008D000496841F0F001414A083A51607DE03F49E2
:1008E0002831884208D13D490839496841F470618E
:1008F0003A4A083A516070E038493C31884208D1A0
:1009000036490839496841F47041344A083A51601F
:1009100063E032495031884208D13049083949688A
:1009200041F470212D4A083A516056E02B49643158
:10093000884208D129490839496841F47001274A99
:10094000083A516049E025497831884208D1234965
:100950000839496841F07061204A083A51603CE02A
:100960001F49884206D1011F096841F00F01021F8B
:10097000116032E01A491431884208D11849091F20
:10098000096841F0F001164A121F116025E0144970
:100990002831884208D11249091F096841F4706161
:1009A0000F4A121F116018E00D493C31884208D1EE
:1009B0000B49091F096841F47041094A121F11606F
:1009C0000BE007495031884207D10549091F0968E2
:1009D00041F47021024A121F116070470800024062
:1009E000080402407047000010B5042000F09CFE8F
:1009F000074800680749B0FBF1F00749086008465E
:100A000000684FF47A7148430449086010BD000043
:100A10004C00002040420F00400000204400002015
:100A200008B50620ADF8000000208DF803006946E7
:100A3000364800F073F84FF48060ADF80000694666
:100A4000334800F06BF84FF40070ADF8000002205E
:100A50008DF8020018208DF8030069462C4800F03C
:100A60005DF80121102000F0E5F80820ADF8000045
:100A700004208DF803006946254800F04FF84FF434
:100A80000060ADF800006946204800F047F80420F7
:100A9000ADF8000002208DF8020018208DF8030048
:100AA00069461B4800F03AF84FF48060ADF800004A
:100AB0006946164800F032F84FF48050ADF8000057
:100AC00002208DF8020010208DF8030069461148BD
:100AD00000F024F84020ADF8000002208DF802005C
:100AE00010208DF8030069460B4800F017F8E0204D
:100AF000ADF8000002208DF8020010208DF80300F0
:100B00006946044800F00AF808BD000000100140E2
:100B100000080140000C0140001C01402DE9F0419B
:100B2000024600250026002000230024002791F81B
:100B300003C00CF00F0591F803C00CF0100CBCF1D1
:100B4000000F03D091F802C04CEA050591F800C0EF
:100B5000BCF1000F31D0146800202BE04FF0010CE5
:100B60000CFA00F3B1F800C00CEA03069E4220D153
:100B700083004FF00F0C0CFA03F7BC4305FA03FC9B
:100B80004CEA040491F803C0BCF1280F06D14FF0E1
:100B9000010C0CFA00FCC2F814C00AE091F803C082
:100BA000BCF1480F05D14FF0010C0CFA00FCC2F863
:100BB00010C0401C0828D1D31460B1F800C0BCF1AB
:100BC000FF0F34DD546800202EE000F1080C4FF0D8
:100BD000010808FA0CF3B1F800C00CEA03069E42C3
:100BE00021D183004FF00F0C0CFA03F7BC4305FA38
:100BF00003FC4CEA040491F803C0BCF1280F05D1B2
:100C000000F1080C08FA0CF8C2F8148091F803C03F
:100C1000BCF1480F07D100F1080C4FF0010808FAA9
:100C20000CF8C2F81080401C0828CED35460BDE8F0
:100C3000F0810000F0B50346B3F1004F5FD9002505
:100C4000002223F00044E50904F07F04220904F0A7
:100C50000F04970004FA07F6052D12D2DFE805F01D
:100C60000305080B0E00C3480CE0C248001D09E054
:100C7000C048083006E0BF480C3003E0BD481030E3
:100C800000E000BF00BF22B9076827F00F07076028
:100C90002FE0012A04D1076827F0F007076028E059
:100CA000022A04D1076827F47067076021E0032A4D
:100CB00004D1076827F4704707601AE0042A04D1BA
:100CC000076827F47027076013E0052A04D1076836
:100CD00027F4700707600CE0062A04D1076827F0A4
:100CE0007067076005E0072A03D1076827F070479F
:100CF0000760012902D107683743076039E1B3F57E
:100D0000804F77D01DDCB3F5807F74D00CDC042BD2
:100D10003CD004DC012B4DD0022B6DD135E0102BE3
:100D200058D0402BF9D168E0B3F5007F75D0B3F50A
:100D3000407F73D0B3F5006F71D0B3F5406FECD145
:100D4000B1E0B3F5801F27D011DCB3F5003F20D010
:100D500006DCB3F5004F1AD0B3F5803FDDD117E0C4
:100D6000B3F5802F16D0B3F5002FD6D113E0B3F131
:100D7000807F75D0B3F1007F73D0B3F1806F71D0F5
:100D80007D4818440028C8D1DDE000BF00BF00BF87
:100D900000BF00BF00BF00BF7648203840689843BE
:100DA000744A203A5060012903D110464068184324
:100DB0005060DDE06F4820384068704A10406D4A4E
:100DC000203A5060012904D11046406840F00100EB
:100DD0005060CDE067482038406820F03000654A18
:100DE000203A5060012904D11046406840F01000BC
:100DF0005060BDE067E013E0B9E05E48203840682D
:100E000020F0C0005B4A203A5060012904D110460E
:100E1000406840F040005060AAE011E023E032E07A
:100E200054482038406820F44070524A203A5060BC
:100E3000012904D11046406840F48070506097E06A
:100E40004C482038406820F440704A4A203A5060AC
:100E5000012904D11046406840F40070506087E0DA
:100E600041E050E05FE043482038406820F44070A3
:100E7000404A203A5060012904D11046406840F4AD
:100E80004070506074E03B482038406820F4406077
:100E9000384A203A5060012904D11046406840F495
:100EA0000060506064E033482038406820F44060BF
:100EB000304A203A5060012904D11046406840F47D
:100EC0004060506054E02B482038406820F4C04017
:100ED000284A203A5060012904D11046406840F465
:100EE0008040506044E023482038406820F0E060B3
:100EF000204A203A5060012904D11046406840F051
:100F00008070506034E01B482038406820F0E0607A
:100F1000184A203A5060012904D11046406840F038
:100F20000070506024E013482038406820F0E060F2
:100F3000104A203A5060012904D11046406840F020
:100F40008060506014E00B482038C069C3F315027C
:100F50009043084A203AD061012907D11046C06960
:100F6000C3F315021043034A203AD06100E000BFEA
:100F700000BFF0BD200001400000E0BFFEFFFF7F8A
:100F80004FF6FF710180022181700421C17070470A
:100F900000BFFEE700BFFEE7704708B54FF4E06012
:100FA00000F05AF826208DF8000000208DF801008E
:100FB0008DF8020001208DF80300684600F014F857
:100FC0004FF4E06000F048F827208DF80000002082
:100FD0008DF801008DF8020001208DF803006846AD
:100FE00000F002F808BD000070B5002100230F22B8
:100FF000C47804B3154C246804F4E064C4F5E064D8
:10100000210AC1F10403CA40447804FA03F1847848
:101010001440214309010E4C0678A155047804F0D0
:101020001F050124AC4005786D11AD0005F1E025E8
:10103000C5F8004109E0047804F01F050124AC4024
:10104000044D0678761145F8264070BD0CED00E0A1
:1010500000E400E080E100E002490143024A11603F
:10106000704700000000FA050CED00E029B1064AC7
:1010700052690243044B5A6104E0034A52698243B5
:10108000014B5A61704700000010024029B1064A26
:10109000D2690243044BDA6104E0034AD269824315
:1010A000014BDA61704700000010024029B1064A86
:1010B00092690243044B9A6104E0034A92698243B5
:1010C000014B9A61704700000010024010B50121E9
:1010D0001D20FFF7EBFF01210846FFF7C7FF0121A5
:1010E0001020FFF7C3FF01214802FFF7DFFF0121B6
:1010F0008803FFF7DBFF01214804FFF7C7FF012149
:101100008804FFF7C3FF10BDF0B5002200210024C2
:1011100000234F4D6D6805F00C0222B1042A12D055
:10112000082A4BD112E04A4D2D6B05F000753DB1F8
:10113000474D6D6D05F4007515B1464D056001E034
:10114000454D05603DE0444D05603AE0404D6D6819
:1011500005F480343E4D6D68404E05EA060101F00D
:10116000C04535B901F47015B5F5701F01D00225E1
:1011700000E0012501F0C046C1F3834747EA566607
:10118000A9191CB9364D4D4305600BE0304D6D6813
:1011900005F400351DB1324D4D43056002E02E4D82
:1011A0004D4305602A4D6D6805F000452DB92D4E63
:1011B0000568B54201D93546056002E0264D056057
:1011C00000BF00BF224D6D68C5F30212204D6D684F
:1011D00005F0800515B1244DAD5C00E000252B46DF
:1011E0000568DD4045601A4D6D68C5F30122184D54
:1011F0006D6805F4806515B11B4DAD5C00E0002500
:101200002B464568DD408560114D6D68C5F3C122F0
:101210000F4D6D6805F4005515B1134DAD5C00E040
:1012200000252B464568DD40C560094D6D68C5F356
:101230008132074D6D6805F080550DB142F0040212
:101240000A4DAB5CC568B5FBF3F50561F0BD000068
:1012500000100240006CDC0200127A0000003C60CA
:1012600000093D0000A24A04082B0008102B0008CA
:10127000FFF793FE00BFFEE790B06AA1D1E900201E
:101280008968CDE90D200F9169A207CA0AAB07C38F
:101290006AA207CA07AB07C36BA207CA04AB07C39E
:1012A0006CA103C9CDE902016CA103C9CDE900011C
:1012B000B6E06C480078401E6B49085CDA2803D021
:1012C000684800780A287DDB68480068401C674948
:1012D0000860644800780A2875DC624802780DA925
:1012E000614800F0EBF950B10120614908702020FD
:1012F0006049086040200860802008605CE0594830
:1013000002780AA9584800F0D9F960B1022058497A
:10131000087020205749091D08604020091F0860F7
:101320008020086048E04F48027807A94E4800F046
:10133000C5F950B104204E49087020204D4908607D
:10134000402008608020086036E04648027804A902
:10135000454800F0B3F950B10820454908702020F5
:1013600044490860402008608020086024E03D482F
:10137000027802A93C4800F0A1F960B110203C4974
:10138000087020203B4908604020091D086080202B
:10139000091F086010E0334802786946324800F0BF
:1013A0008DF948B120203249087032490860402048
:1013B00008608020091D08602F480078032824D188
:1013C0002B4801E029E020E0007804281DD100200E
:1013D000294908700420294908761920FFF798F94F
:1013E000264948762348006880F4805021490860E7
:1013F0001C222249224800F047F91E48001D0068BF
:1014000080F480501B49091D0860002015490870B0
:1014100015480021016041600181322001F0AAF8E5
:1014200047E70000A08105010101010101DA000088
:10143000A08105020101010201DA0000A08105027C
:101440000201010202DA0000A0810502020A010184
:101450000ADA0000A08003C13032C3DAA08003C1E1
:101460003033C2DA7E0000203201002080000020EC
:101470007F000020100C014061000020620000206D
:1014800000440040FFF789FD00BFFEE786B068A575
:101490006AA103C9CDE904016AA103C9CDE902012A
:1014A000C4E06A480078401E6949085C0D2803D0F2
:1014B0006648007816287DDB64480078162801DB32
:1014C000162001E061480078044616226049614810
:1014D000FEF7FDFE29465F48FEF71DFF002848D0B5
:1014E0005DA15C48FEF717FF0028F8D0162C40D10C
:1014F00015205A4908740220487401208874C87461
:101500005748008801909DF8050008759DF8040073
:1015100048755448008800909DF8010088759DF832
:101520000000C8754B48807C012823D100204E491B
:1015300008604E4908604E4908704E480078474997
:1015400008761920FFF7E4F8444948764A480068CD
:1015500080F48050484908601C224049474800F008
:1015600093F84548001D006880F480504249091DE9
:10157000086051E03748807C02282AD100203A498F
:1015800008603A4908603A4908703A480078334997
:1015900008761920FFF7BCF83049487636480068CD
:1015A00080F48050344908601C222C49334800F0F4
:1015B0006BF800E037E03048001D006880F4805090
:1015C0002D49091D0860082204A92D4800F05CF887
:1015D00022E02048807C032807D125490870082292
:1015E00002A9274800F050F816E01A48807C11281C
:1015F00007D1CC21234800F0C0FA01201B49086024
:101600000AE01448807C122806D1DD211D4800F034
:10161000B4FA01201449086016210D48FEF770FE47
:1016200000200A490870322000F0A4FF39E70000CA
:1016300041542A54585F524551000000A18003C113
:101640003000F1DAA18003C23100F3DA600000203B
:101650001C010020060100200D0A0000620000208D
:101660008A000020880000208C00002090000020CC
:10167000610000207F000020100C01400044004069
:1016800000480040003801402DE9F04107460C4673
:10169000154600260DE03046721CD6B2215C384655
:1016A00000F06BFA00BF8021384600F091F9002865
:1016B000F9D0AE42EFDDBDE8F081704730B50346AA
:1016C0000C46002107E0585C655CA84201D0002070
:1016D00030BD00BF491C9142F5DB0120F8E7000056
:1016E00018E00D4800680D49096888420AD1202099
:1016F0000B490860402008608020086040200949AC
:10170000087003E0054800680349086041F288302A
:1017100000F030FFE5E7000084000020800000209A
:10172000140C01407F000020042808D14FF0E02174
:10173000096941F004014FF0E022116107E04FF028
:10174000E021096921F004014FF0E02211617047A6
:1017500010B500BF102080F31188BFF34F8FBFF387
:101760006F8F00BF01F0AAF818B14FF08050044904
:10177000086000BF002080F3118800BF10BD00008A
:1017800004ED00E010B51A48006840F470001849F4
:1017900008601848006840F00100164908600846D3
:1017A00040681549084013494860084600681349D5
:1017B0000840104908600846006820F4802008604E
:1017C000084640680E4908400A4948600846006BD0
:1017D0000C490840074908634FF41F008860FFF771
:1017E0006CFF4FF0006002498039086010BD0000B6
:1017F00088ED00E0001002400C00FFE8FFFFF6FE5D
:10180000FFFF001700FFFEFE1FB5684600F0B9F9A4
:101810004FF4E13000900020ADF80400ADF8060070
:10182000ADF80800ADF80C000C20ADF80A006946D0
:10183000264800F029F96946254800F025F94FF4BB
:10184000165000900020ADF80400ADF80600ADF889
:101850000800ADF80C000C20ADF80A0069461D48E0
:1018600000F012F90122C021184800F0A8F8012266
:10187000C021174800F0A3F80122C021154800F04C
:101880009EF8012240F22551114800F0D8F80122BB
:1018900040F227710E4800F0D2F8012240F22551A3
:1018A0000C4800F0CCF8012240F22771094800F002
:1018B000C6F80121054800F076F80121044800F03F
:1018C00072F80121034800F06EF81FBD0038014096
:1018D000004400400048004010B540F22551114836
:1018E00000F083F880B140F225510E4800F04CF82A
:1018F0000C4800F03DF9C1B20B4802780078401C5A
:10190000094B18700948815440F22771054800F0CE
:101910006CF828B1002240F22771024800F08FF8DD
:1019200010BD000000440040600000201C010020A9
:1019300010B540F22551114800F057F880B140F23F
:1019400025510E4800F020F80C4800F011F9C1B202
:101950000B4802780078401C094B187009488154E4
:1019600040F22771054800F040F828B1002240F20B
:101970002771024800F063F810BD000000480040E5
:101980007E0000203201002010B50022002340F626
:101990006A14A14200D100BF0A1201249440A3B2EC
:1019A000DC43048010BD21B1828942F4005282815F
:1019B00004E082894DF6FF731A40828170471AB1A4
:1019C000838A0B43838202E0838A8B43838270473E
:1019D00002460020B1F5007F00D100BF13880B4004
:1019E0000BB1012000E00020704770B502460024D2
:1019F00000230025002040F66A16B14200D100BF46
:101A0000C1F3421501F01F03012606FA03F3012D6D
:101A100002D19689334006E0022D02D1168A334066
:101A200001E0968A33400C12012606FA04F4168867
:101A3000344013B10CB1012000E0002070BDF0B5BE
:101A40000346002400260025002040F66A17B9420C
:101A500000D100BF1846C1F3421401F01F06012750
:101A600007FA06F5012C01D10C3004E0022C01D15B
:101A7000103000E014301AB107682F43076002E00D
:101A80000768AF430760F0BD2DE9F04F89B0054608
:101A90000E46002400200790834682468146B08986
:101AA00000B100BFA9462C8A4CF6FF700440F088B4
:101AB00004432C82AC894EF6F3100440B08831897F
:101AC0000843718908430443AC81AC8A4FF6FF4058
:101AD0000440B0890443AC8202A8FFF715FB2348F9
:101AE000814502D10598079001E0049807904FF4D2
:101AF0007A710798A0FB0170014610220023384636
:101B0000FEF7B4FBCDE9000137683A460023FEF743
:101B1000ADFB04464FF47A70B4FBF0FBB4FBF0F17C
:101B200000FB11404FEA001A4FF47A70BAFBF0F153
:101B300000FB11A0B0F5FA7F04D24FF47A70BAFB23
:101B4000F0FA0CE04FF47A70BAFBF0F000F1010A01
:101B5000BAF1100F03D34FF0000A0BF1010B4AEA60
:101B60000B10288109B0BDE8F08F0000003801405B
:101B700001468888C0F308007047C1F308028280DC
:101B800070474FF41651016000218180C1800181AE
:101B90000C21418100218181704700BFFEE70000D8
:101BA0002DED028B88B04FF48050079000200690F6
:101BB000002430A207CA03AB07C39FED310AB0EE81
:101BC000408A9FED300AF0EE408A52E04FF4805098
:101BD00007900020069000250FE02B480488BDF8F0
:101BE0001800844200DB0694BDF81C00844200DC2F
:101BF0000794102000F0BEFC6D1C782DEDDBBDF8C5
:101C00001C0000EE100AF8EE400AB0EE680A08EE7A
:101C1000600ABCEEC00A10EE100A1C4908801C487D
:101C2000006818B30798019006980290084600884B
:101C300000909DF805008DF80D009DF804008DF8CA
:101C40000E009DF809008DF810009DF808008DF831
:101C500011009DF801008DF813009DF800008DF82B
:101C60001400092203A90B48FFF70EFD322000F0F3
:101C700081FCABE7AA0000BB0000CC000000000024
:101C80009224493EAEC71F44940000208A000020E1
:101C9000900000200038014002E008C8121F08C16F
:101CA000002AFAD170477047002001E001C1121FDD
:101CB000002AFBD1704700001CB5FFF707FAFEF7BA
:101CC000AFFEFEF7CFFCFFF79FFDFEF767FB40205E
:101CD0002B49086020202B490860402008608020A4
:101CE000086000F0A1FB0020012103468022CDE91D
:101CF000001025A1274800F0B1FD00200221034675
:101D00008022CDE9001024A1264800F0A7FD002084
:101D1000032103468022CDE9001023A1254800F0CD
:101D20009DFD0020042103468022CDE9001022A160
:101D3000244800F093FD0020052103468022CDE9D0
:101D4000001021A1234800F089FD00200621034650
:101D50008022CDE9001020A1224800F07FFD002064
:101D6000072103468022CDE900101FA1214800F081
:101D700075FD00F083FB00F02BFC00201CBD000073
:101D8000141C0140100C0140525334383552785421
:101D900061736B0085140008525332333252785409
:101DA00061736B0071120008525332333254617305
:101DB0006B000000791200085253343835546173B7
:101DC0006B0000008D1400085374617475735461C6
:101DD000736B0000E1160008566F6C746167655400
:101DE00061736B00A11B000843757272656E7454B9
:101DF00061736B00310700082DE9F04105460E467E
:101E00001C4807681C480068001D00F0C3FA50B960
:101E10001948006890F82C1001208840174909687B
:101E2000814316480160681C38B936B11248016810
:101E3000091D134800F0ECFA1AE07C190E480068FE
:101E40004460BC4207D20C480168091D0D48006877
:101E500000F0C4FA0CE008480168091D0A4800684F
:101E600000F0BCFA09480068844201D207480460C7
:101E7000BDE8F081D0000020BC000020D40000208C
:101E8000F0210020C4000020C0000020EC00002051
:101E900010B5044600F0C8FA23480068401C2249E7
:101EA00008602248006840B920480460084600687D
:101EB00001280DD100F018F90AE01D48006838B972
:101EC0001A480068C06AE16A884201D8174804606D
:101ED00018480068401C1749086094F82C1001202D
:101EE000884015490968084313490860E16A01EB15
:101EF0008101124A02EB8100211D00F089FA00F0F5
:101F0000BDFA0B48006868B108480068C06AE16A19
:101F1000884207D24FF0805009490860BFF34F8FC5
:101F2000BFF36F8F10BD0000CC000020BC0000206C
:101F3000D8000020E8000020D40000203C21002030
:101F400004ED00E010B516E000F06EFA0C48C06831
:101F5000C468201D00F01EFA0A480068401E0949A6
:101F6000086009480068401E0749086000F086FACA
:101F7000204600F00BF8044800680028E4D110BDAA
:101F8000DC210020CC000020C800002010B5044651
:101F9000206B00F091FA204600F08EFA10BD000090
:101FA00030B54FF40053174800F007042CB1C01DA2
:101FB00020F00700134C041B1B1B0246124C22602E
:101FC0000024114D6C60D018083820F007000F4C29
:101FD000206000240D4D2D686C600C4D2D682C6028
:101FE0001146441A4C60094C24680C60084D4C683A
:101FF0002C60084D4C682C604FF00044064D2C605E
:1020000030BD00003C01002098000020A00000200E
:10201000A8000020A4000020AC00002000BFFFF7B3
:1020200091FF064800680128F9D94FF08050044913
:102030000860BFF34F8FBFF36F8FF0E73C210020A4
:1020400004ED00E02DE9FF5F81460E469246DDE992
:102050000E7B109CAAF10100216B01EB800828F097
:10206000070808F0070008B9012000E0002050B977
:1020700000BF102080F31188BFF34F8FBFF36F8F25
:1020800000BF00BFFEE7002507E0715D04F13400EA
:102090004155705D00B902E06D1C102DF5D300BFF5
:1020A000002143200155052F00D30427E762201D9E
:1020B00000F091F904F1180000F08DF92461C7F1E6
:1020C0000500A06164620020606484F8480049460D
:1020D0004046039A00F048F92060BBF1000F01D0A0
:1020E000CBF80040BDE8FF9F10B5002407E004EBEB
:1020F00084010F4A02EB810000F060F9641C052C9A
:10210000F5D30C4800F05AF90B4800F057F90B488A
:1021100000F054F90A4800F051F90A4800F04EF96D
:1021200004480949086004480849086010BD0000D7
:102130003C210020A0210020B4210020C821002043
:10214000DC210020F0210020C0000020C40000207D
:1021500010B50146164800E0006803688B42FBD3C7
:102160000246436813448B4204D143684C682344BD
:10217000436001460A464B6813440468A34211D1E8
:102180000C4C03682468A34208D04B680468646858
:1021900023444B6003681B680B6005E0054B1B681C
:1021A0000B6001E003680B60884200D0016010BD45
:1021B00098000020A00000200A490968096809B9B0
:1021C000012100E0002121B14FF0FF31064A1160EA
:1021D00006E004490968C968C868034A4168116093
:1021E00070470000C0000020EC0000200E4800688E
:1021F000401C08B9012000E0002050B900BF1020A9
:1022000080F31188BFF34F8FBFF36F8F00BF00BF04
:10221000FEE700BF102080F31188BFF34F8FBFF39C
:102220006F8F00BF00BFFEE7B00000202DE9F04136
:1022300004464FF0000800F00FFA4648006808B95D
:10224000FFF7AEFE44480068204000286BD1D4B1AF
:10225000083404F00700B0B104F00700C0F1080032
:10226000044404F0070008B9012000E0002050B940
:1022700000BF102080F31188BFF34F8FBFF36F8F23
:1022800000BF00BFFEE7002C4DD0344800688442F8
:1022900049D8334E3046056801E02E462D686868FF
:1022A000A04202D228680028F7D12A480068854257
:1022B00039D0306800F10808286830606868001B71
:1022C000102819D92F1907F0070008B9012000E0DC
:1022D000002050B900BF102080F31188BFF34F8F4A
:1022E000BFF36F8F00BF00BFFEE76868001B786018
:1022F0006C603846FFF72CFF184968680968081AAF
:10230000164908600846006816490968884203D2E1
:1023100012480068134908600F4968680968084353
:1023200068600020286000F06DFB08F0070008B925
:10233000012000E0002050B900BF102080F3118878
:10234000BFF34F8FBFF36F8F00BF00BFFEE7404664
:10235000BDE8F081A0000020AC000020A400002017
:1023600098000020A8000020001F4FF08073036039
:10237000001F21F001030360001F054B03601438A8
:102380000260001F6FF002030360203870470000F6
:10239000ED21000801460A69D1E901309860D1E9D0
:1023A000010358605068884201D18868506000205D
:1023B00008611068401E10601068704700F1080145
:1023C00041604FF0FF31816000F10801C16001619F
:1023D00000210160704700210161704710B502467D
:1023E0000B685C1C0CB9106907E002F1080000E002
:1023F0004068446824689C42FAD944684C604C6840
:10240000A160886041600A611468641C146010BD9A
:1024100042684A6093688B60936859609160086174
:1024200003685B1C0360704700BF102080F31188B5
:10243000BFF34F8FBFF36F8F00BF0E480068401C83
:102440000C49086008460068012812D10A48006853
:10245000C0B208B9012000E0002050B900BF102030
:1024600080F31188BFF34F8FBFF36F8F00BF00BFA2
:10247000FEE77047B000002004ED00E00D48006862
:1024800050B900BF102080F31188BFF34F8FBFF306
:102490006F8F00BF00BFFEE706480068401E054979
:1024A00008600846006820B9002080F3118800BF4A
:1024B00000BF7047B000002070B506463546002EBC
:1024C0003FD0083D2C461F4960680968084008B1A4
:1024D000012000E0002050B900BF102080F31188D7
:1024E000BFF34F8FBFF36F8F00BF00BFFEE72068C1
:1024F00008B9012000E0002050B900BF102080F38F
:102500001188BFF34F8FBFF36F8F00BF00BFFEE78F
:102510000C4960680968084098B1206888B9094981
:10252000606809688843606000F096F80649606852
:1025300009680844044908602046FFF709FE00F0D6
:1025400061FA70BDAC000020A400002000204FF014
:10255000E02108618861064800684FF47A71B0FB99
:10256000F1F0401E4FF0E0214861072008617047FC
:102570004C00002070B504460025D4B11248006814
:1025800008B9012000E0002050B900BF102080F3FE
:102590001188BFF34F8FBFF36F8F00BF00BFFEE7FF
:1025A00000F05AF800212046FFF726FC00F02AFA36
:1025B00005463DB94FF0805004490860BFF34F8F86
:1025C000BFF36F8F70BD0000F400002004ED00E049
:1025D0001CB51A4800210B468022CDE9001018A135
:1025E000194800F03BF90446012C15D100BF10201A
:1025F00080F31188BFF34F8FBFF36F8F00BF4FF091
:10260000FF3012490860012011490860002011497B
:10261000086000F06FF810E0601C08B1012000E0D5
:10262000002050B900BF102080F31188BFF34F8FF6
:10263000BFF36F8F00BF00BFFEE71CBDF00000209E
:1026400049444C45000000001D200008EC0000201B
:10265000D8000020D000002002480068401C01493A
:1026600008607047F40000201D48006818B1012080
:102670001C49086032E000201A4908601A480068C6
:10268000B0FA80F0C0F11F0101EB8100174A52F847
:10269000200008B1012000E0002050B900BF102048
:1026A00080F31188BFF34F8FBFF36F8F00BF00BF60
:1026B000FEE701EB81020D4B03EB8200426852689A
:1026C000426000F108024368934202D142685268B6
:1026D00042604268D268064B1A6000BF7047000033
:1026E000F4000020E0000020D40000203C21002065
:1026F000BC0000201CB5524800685249884201D0F5
:10270000012000E0002050B900BF102080F31188A4
:10271000BFF34F8FBFF36F8F00BF00BFFEE7484886
:1027200000684849491E884201D0012000E000208D
:1027300050B900BF102080F31188BFF34F8FBFF353
:102740006F8F00BF00BFFEE73F4908460078019049
:10275000FF200A4610700846007800909DF800009F
:1027600000F0F0009DF80020904201D1012000E02F
:10277000002050B900BF102080F31188BFF34F8FA5
:10278000BFF36F8F00BF00BFFEE79DF8000000F0B1
:1027900010002E4A107007202D4A106009E02C48C6
:1027A0000068401E2A4A10609DF800004006000E96
:1027B00000909DF8000000F080008028EFD02448B1
:1027C0000068C0F10700042801D1012000E00020CA
:1027D00050B900BF102080F31188BFF34F8FBFF3B3
:1027E0006F8F00BF00BFFEE7194800680002184A5B
:1027F00010601046008800F4E0601060124A0198F2
:1028000010700F482030006840F470000C492031EF
:1028100008600846006840F070400860FFF796FEC8
:1028200000200C490860FDF7D3FC0B48006840F01D
:10283000404009490860FDF7B7FC00201CBD0000BE
:1028400000ED00E071C20F4100E400E0B4000020A0
:10285000B8000020B000002034EF00E02DE9FF4F69
:1028600085B0804689461746DDE912ABB800FFF710
:10287000DDFC064656B14C20FFF7D8FC04460CB1EF
:10288000266304E03046FFF717FE00E000247CB129
:102890000020CDE900ABCDE902403A46494640462A
:1028A000089BFFF7CFFB2046FFF7F2FA012501E076
:1028B0004FF0FF35284609B0BDE8F08F2DE9F04113
:1028C0004FF0000844480068002877D1434800686A
:1028D000451C4248056015BB41480068006808B9BE
:1028E000012000E0002050B900BF102080F31188C3
:1028F000BFF34F8FBFF36F8F00BF00BFFEE73848B5
:102900000768384800683649086036480760364826
:102910000068401C34490860FFF74EFC00BF334894
:10292000006885423CD300BF2D480068006808B9A4
:10293000012000E0002020B14FF0FF302B4908605B
:102940002DE027480068C068C4686668B54202D2B6
:102950002648066023E0201DFFF71CFDA06A18B181
:1029600004F11800FFF716FD94F82C1001208840A0
:102970001F49096808431E490860E16A01EB8101AB
:102980001C4A02EB8100211DFFF742FD1A49E06A53
:102990000968C96A8842C7D34FF00108C4E700BF7D
:1029A00015480068C06A00EB8000124951F8200009
:1029B000012801D94FF0010805E0FFE70F48006842
:1029C000401C0E4908600E48006808B14FF001082D
:1029D0004046BDE8F0810000F4000020D000002057
:1029E000C0000020C4000020E4000020EC00002013
:1029F000D40000203C210020BC000020DC0000208E
:102A0000E000002070B5002400263648006850B968
:102A100000BF102080F31188BFF34F8FBFF36F8F7B
:102A200000BF00BFFEE7FFF7FFFC2E480068401E16
:102A30002C4908600846006800284FD12A480068E1
:102A400000284BD024E02948C068C46804F118006D
:102A5000FFF7A0FC201DFFF79DFC94F82C1001202F
:102A6000884023490968084321490860E16A01EB6D
:102A70008101204A02EB8100211DFFF7C9FC1E499C
:102A8000E06A0968C96A884202D301201B490860CC
:102A90001648006808B9012000E000200028D2D0C4
:102AA0000CB1FFF789FB1648056865B100BFFFF759
:102AB00005FF10B10120114908606D1E002DF6D1EF
:102AC00000200F4908600D48006838B10126300722
:102AD0000C490860BFF34F8FBFF36F8FFFF7CEFC39
:102AE000304670BDF4000020CC000020C82100203A
:102AF000D40000203C210020BC000020E000002089
:102B0000DC00002004ED00E00102030406070809D0
:102B100002040608020C0810382B000800000020F0
:102B2000F8000000981C0008302C0008F800002075
:102B300010250000A81C0008000000000000000094
:102B4000001C0140000C014000100140000040004A
:102B500020002000000000008000000008000000AD
:102B6000100000000008014000100140010000209A
:102B70000400000010000000000000000000000041
:102B80000100000000127A000000000000000000B8
:102B90000102030406070809000041542A52585F45
:102BA0005253500000000000000000000000000030
:102BB000000000000D0A00000000000000000000FE
:102BC0000000000000000000000000000000000005
:102BD00000000000000000000000000000000000F5
:102BE0000000000000000000AAAAAAAA000000003D
:102BF00000000000000000000000000000000000D5
:102C000000000000000000000000000000000000C4
:102C100000000000000000000000000000000000B4
:102C200000000000000000000000000000000000A4
:04000005080001717D
:00000001FF
